:100000000C9462000C948A000C948A000C948A0070
:100010000C948A000C948A000C948A000C948A0038
:100020000C948A000C948A000C948A000C948A0028
:100030000C948A000C948A000C948A000C948A0018
:100040000C9497030C948A000C948A000C948A00F8
:100050000C948A000C948A000C948A000C948A00F8
:100060000C948A000C948A000000000024002700F1
:100070002A0000000000250028002B0000000000DE
:1000800023002600290004040404040404040202DA
:100090000202020203030303030301020408102007
:1000A0004080010204081020010204081020000012
:1000B0000008000201000003040700000000000027
:1000C0000000830511241FBECFEFD8E0DEBFCDBFF7
:1000D00011E0A0E0B1E0EEEAFBE002C005900D9275
:1000E000AE31B107D9F721E0AEE1B1E001C01D9218
:1000F000AE39B207E1F710E0C2E6D0E004C02197C4
:10010000FE010E94CF05C136D107C9F70E94E10365
:100110000C94D5050C94000096E0899FD001112421
:10012000A15DBE4F90967C936E935F9791E0919600
:100130009C939197E0919C01F0919D0190919B017E
:10014000992339F0309751F0811108C080914B010B
:100150000994309719F05C968C91FACF0895CF925C
:10016000DF92EF92FF920F931F9396E0899FF00129
:100170001124E15DFE4F11A2278D30A12130310500
:1001800051F178F02230310509F451C023303105A6
:1001900009F452C01F910F91FF90EF90DF90CF9024
:1001A00008956623B9F361E070E00E948C002FB7D8
:1001B000F89480912B0190912C01A0912D01B09188
:1001C0002E012FBF8093870190938801A09389010E
:1001D000B0938A01DFCF9FB7F894C0902B01D090E5
:1001E0002C01E0902D01F0902E019FBF009187011E
:1001F000109188012091890130918A01C01AD10A99
:10020000E20AF30A0091990110919A0130E020E08E
:100210000C151D052E053F0550F462E070E01F919E
:100220000F91FF90EF90DF90CF900C948C006111B4
:10023000B1CF63E070E0F3CF70E060E0F0CF8330E7
:1002400081F028F4813099F08230A9F00895873048
:10025000A9F08830C9F08430B1F4809180008F7D9E
:1002600003C0809180008F7780938000089584B5CB
:100270008F7784BD089584B58F7DFBCF8091B000CA
:100280008F778093B00008958091B0008F7DF9CF73
:10029000CF93DF93282F30E0F901E255FF4F84918F
:1002A000F901E656FF4FD491F901EA57FF4FC49187
:1002B000CC23A1F081110E941F01EC2FF0E0EE0F82
:1002C000FF1FE458FF4FA591B491EC91ED2381E01D
:1002D00090E009F480E0DF91CF91089580E090E014
:1002E000FACF862F0C9448011F93CF93DF93282FCA
:1002F00030E0F901E255FF4F8491F901E656FF4FD6
:10030000D491F901EA57FF4FC491CC23A9F0162FDD
:1003100081110E941F01EC2FF0E0EE0FFF1FEE583D
:10032000FF4FA591B4918FB7F894EC91111108C0CB
:10033000D095DE23DC938FBFDF91CF911F9108957D
:10034000DE2BF8CF862F642F0C947401CF93DF93AC
:1003500090E0FC01E656FF4F24918A579F4FFC0125
:1003600084918823C9F090E0880F991FFC01E85917
:10037000FF4FA591B491FC01EE58FF4FC591D49168
:1003800061110DC09FB7F8948C91209582238C93B6
:100390008881282328839FBFDF91CF910895623001
:1003A00051F49FB7F8943C91822F809583238C93CE
:1003B000E8812E2BEFCF8FB7F894EC912E2B2C9356
:1003C0008FBFEACF862F642F0C94A6016F927F9285
:1003D0008F929F92AF92BF92CF92DF92EF92FF9255
:1003E0000F931F93CF93DF9381E080939B018FB78F
:1003F000F89440912B0150912C0160912D01709146
:100400002E018FBF80918B0190918C01A0918D0165
:10041000B0918E01481B590B6A0B7B0B80919701A1
:1004200090919801B0E0A0E084179507A607B70760
:1004300008F01DC1C0E080919501C81760F4E091FB
:100440009101F0919201EC0FF11D62E080810E9418
:10045000A601CF5FF0CF712C812C912C5401839495
:1004600080919601781608F05FC0072D10E0E091AA
:100470009301F0919401E00FF11F61E080810E94EF
:10048000A601E0919301F0919401E00FF11F60E06B
:1004900080810E947401D501C401072C04C0880F1B
:1004A000991FAA1FBB1F0A94D2F76C017C01E0942C
:1004B000F094612C809195016816F8F4C62DD0E077
:1004C000E0919101F0919201EC0FFD1F80810E945B
:1004D00048012496CC0FDD1FC15DDE4F892B41F40E
:1004E000888199818C299D29998388836394E2CF9F
:1004F000888199818E219F21F7CFE0919301F0911E
:100500009401E00FF11F61E080810E9474018091ED
:10051000930190919401080F191F60E0F801808108
:100520000E94A60173949CCFCFE2D1E0FE018FEF31
:100530009FEF278D30A1232B21F4148E968F858F6A
:1005400011A2369621E0EB36F20799F7F12C96E0EE
:10055000D92E80919501F81608F050C0E12C0F2D8E
:1005600010E0000F111F095C1E4F20919601E2164A
:1005700008F042C0F801608171810E2C02C07695AE
:1005800067950A94E2F7F29E900111242E0D311D19
:10059000EFE2F1E080E0458D568D2417350709F430
:1005A0006AC08F5F36968A30B1F760FF23C0EFE2F2
:1005B000F1E090E080E0448D411117C0E0918F019F
:1005C000F0919001E20FF31F4081D89EF001D99E77
:1005D000F00D1124E15DFE4F448F368F258F10A260
:1005E000178E61E00E94AF0005C0019636968A30F2
:1005F000910509F7E394B9CFF394ABCF80E099A1CB
:100600009111892F2696F1E0CB36DF07C1F79FB70E
:10061000F89440912B0150912C0160912D01709123
:100620002E019FBF40938B0150938C0160938D01ED
:1006300070938E018823D9F0809150018823B9F0FE
:1006400080914E0190914F01019789F480914B0167
:10065000DF91CF911F910F91FF90EF90DF90CF909E
:10066000BF90AF909F908F907F906F900895109261
:100670009B0180E0EDCF6170B5CF3FB7F8948091DA
:100680001F0190912001A0912101B091220126B576
:10069000A89B05C02F3F19F00196A11DB11D3FBFBA
:1006A000BA2FA92F982F8827BC01CD01620F711D89
:1006B000811D911D42E0660F771F881F991F4A9583
:1006C000D1F708958F929F92AF92BF92CF92DF920F
:1006D000EF92FF920E943D034B015C0188ECC82E13
:1006E000D12CE12CF12C0E943D03681979098A096B
:1006F0009B09683E734081059105A8F321E0C21A69
:10070000D108E108F10888EE880E83E0981EA11C4C
:10071000B11CC114D104E104F10429F7FF90EF905A
:10072000DF90CF90BF90AF909F908F9008951F92D1
:100730000F920FB60F9211242F933F938F939F9395
:10074000AF93BF9380912B0190912C01A0912D012B
:10075000B0912E0130911E0123E0230F2D3758F563
:100760000196A11DB11D20931E0180932B01909332
:100770002C01A0932D01B0932E0180911F01909127
:100780002001A0912101B09122010196A11DB11D6E
:1007900080931F0190932001A0932101B093220127
:1007A000BF91AF919F918F913F912F910F900FBE6D
:1007B0000F901F90189526E8230F0296A11DB11DDA
:1007C000D2CF789484B5826084BD84B5816084BDC5
:1007D00085B5826085BD85B5816085BD80916E00DF
:1007E000816080936E001092810080918100826010
:1007F000809381008091810081608093810080914D
:1008000080008160809380008091B100846080933B
:10081000B1008091B00081608093B00080917A0037
:10082000846080937A0080917A00826080937A005D
:1008300080917A00816080937A0080917A0080684C
:1008400080937A001092C10061E080E00E94A601CE
:1008500061E088E00E94A60161E089E00E94A601B3
:1008600061E08AE00E94A60161E08BE00E94A6019F
:1008700061E08CE00E94A60161E08DE00E94A6018B
:1008800080E0E82E80E0F82E01E010E08091290160
:1008900090912A0161E0892B09F060E080E00E94DC
:1008A00074010E94E601882309F443C020912901C4
:1008B00030912A01F901EB5DFE4F80832F5F3F4F9E
:1008C00030932A01209329012430310509F016C103
:1008D00080912501813309F04AC08091260182333D
:1008E00041F580912701833321F5809128018433DC
:1008F00001F5C8E00E94E601882311F1E091290189
:10090000F0912A01EB5DFE4F80838133C9F410938F
:100910002401009323018091230190912401892BCC
:1009200041F310922A011092290110922401109291
:100930002301E114F10409F4A9CF0E940000A6CF1D
:1009400061E08C2F0E9474010E94620360E08C2F92
:100950000E947401E0912901F0912A01EB5DFE4FA4
:1009600080818133A1F2CF5FCE3021F6D4CF8233A4
:10097000D9F5809126018333E1F6809127018433F4
:10098000C1F6809128018533A1F6CEE00E94E601F0
:100990008823E1F0E0912901F0912A01EB5DFE4FFF
:1009A0008083813399F41093240100932301809173
:1009B000230190912401892B41F31092240110927C
:1009C000230110922A0110922901B3CF61E08C2FEC
:1009D0000E9474010E94620360E08C2F0E947401E7
:1009E000C150C73099F6E3CF833309F044C08091FA
:1009F0002601843309F09DCF80912801863309F0C8
:100A000098CFC8E00E94E6018823A1F0E091290177
:100A1000F0912A01EB5DFE4F8083813359F41093EE
:100A20002401009323018091230190912401892BBB
:100A300041F3C3CF61E08C2F0E947401D1E0DC0F41
:100A400061E08D2F0E9474010E94620360E08C2F90
:100A50000E94740160E08D2F0E947401E0912901D1
:100A6000F0912A01EB5DFE4F80818133C1F2CD2FE1
:100A7000DE3041F6D8CF843309F05BCF8091260178
:100A8000853309F056CF80912701863309F051CF85
:100A900080912801873309F04CCFCEE00E94E60117
:100AA0008823A1F0E0912901F0912A01EB5DFE4F2E
:100AB0008083813359F410932401009323018091A2
:100AC000230190912401892B41F377CF61E08C2F92
:100AD0000E947401DFEFDC0F61E08D2F0E94740132
:100AE0000E94620360E08C2F0E94740160E08D2FF1
:100AF0000E947401CD2FD73089F6E1CF2430310523
:100B00000CF05FCF16CF1092310110923501109288
:100B100034011092360187E191E090933001809387
:100B20002F01EBE4F1E010821482138215823696D5
:100B300081E0E738F807B9F783E091E090939201FC
:100B40008093910180E091E09093940180939301D0
:100B500084E08093950183E08093960187E091E0A3
:100B60009093900180938F018AE090E09093980198
:100B70008093970184EF91E090939A01809399017B
:100B800010929D0110929C0110928B0110928C0189
:100B900010928D0110928E0110929B010895EE0F1C
:0E0BA000FF1F0590F491E02D0994F894FFCF0B
:100BAE00030201040506073132333435363738393E
:0E0BBE0023302A00000000E201A201710100B4
:00000001FF
